tcpdump: data link type LINUX_SLL2
tcpdump: verbose output suppressed, use -v[v]... for full protocol decode
listening on any, link-type LINUX_SLL2 (Linux cooked v2), snapshot length 262144 bytes
23:00:39.489236 eth0  Out IP 192.168.31.172.39579 > 1.1.1.1.53: 2526+ A? github.com. (28)
	0x0000:  0800 0000 0000 0002 0001 0406 bc24 1138  .............$.8
	0x0010:  b334 0000 4500 0038 99e0 4000 4011 be7e  .4..E..8..@.@..~
	0x0020:  c0a8 1fac 0101 0101 9a9b 0035 0024 e28b  ...........5.$..
	0x0030:  09de 0100 0001 0000 0000 0000 0667 6974  .............git
	0x0040:  6875 6203 636f 6d00 0001 0001            hub.com.....
23:00:39.544667 eth0  In  IP 1.1.1.1.53 > 192.168.31.172.39579: 2526 1/0/0 A 20.207.73.82 (44)
	0x0000:  0800 0000 0000 0002 0001 0006 325f 0cfe  ............2_..
	0x0010:  51dd 0000 4500 0048 f9e0 4000 3411 6a6e  Q...E..H..@.4.jn
	0x0020:  0101 0101 c0a8 1fac 0035 9a9b 0034 0000  .........5...4..
	0x0030:  09de 8180 0001 0001 0000 0000 0667 6974  .............git
	0x0040:  6875 6203 636f 6d00 0001 0001 c00c 0001  hub.com.........
	0x0050:  0001 0000 0011 0004 14cf 4952            ..........IR
23:00:39.544708 eth0  Out IP 192.168.31.172.39579 > 1.1.1.1.53: 23516+ AAAA? github.com. (28)
	0x0000:  0800 0000 0000 0002 0001 0406 bc24 1138  .............$.8
	0x0010:  b334 0000 4500 0038 99e1 4000 4011 be7d  .4..E..8..@.@..}
	0x0020:  c0a8 1fac 0101 0101 9a9b 0035 0024 e28b  ...........5.$..
	0x0030:  5bdc 0100 0001 0000 0000 0000 0667 6974  [............git
	0x0040:  6875 6203 636f 6d00 001c 0001            hub.com.....
23:00:39.589817 eth0  In  IP 1.1.1.1.53 > 192.168.31.172.39579: 23516 0/1/0 (112)
	0x0000:  0800 0000 0000 0002 0001 0006 325f 0cfe  ............2_..
	0x0010:  51dd 0000 4500 008c fae0 4000 3411 692a  Q...E.....@.4.i*
	0x0020:  0101 0101 c0a8 1fac 0035 9a9b 0078 0000  .........5...x..
	0x0030:  5bdc 8180 0001 0000 0001 0000 0667 6974  [............git
	0x0040:  6875 6203 636f 6d00 001c 0001 c00c 0006  hub.com.........
	0x0050:  0001 0000 02c0 0048 076e 732d 3137 3037  .......H.ns-1707
	0x0060:  0961 7773 646e 732d 3231 0263 6f02 756b  .awsdns-21.co.uk
	0x0070:  0011 6177 7364 6e73 2d68 6f73 746d 6173  ..awsdns-hostmas
	0x0080:  7465 7206 616d 617a 6f6e c013 0000 0001  ter.amazon......
	0x0090:  0000 1c20 0000 0384 0012 7500 0001 5180  ..........u...Q.
23:00:39.589992 eth0  Out IP 192.168.31.172.39856 > 20.207.73.82.443: Flags [S], seq 981884684, win 64240, options [mss 1460,sackOK,TS val 1581142648 ecr 0,nop,wscale 7], length 0
	0x0000:  0800 0000 0000 0002 0001 0406 bc24 1138  .............$.8
	0x0010:  b334 0000 4500 003c 2a84 4000 4006 d1c2  .4..E..<*.@.@...
	0x0020:  c0a8 1fac 14cf 4952 9bb0 01bb 3a86 5f0c  ......IR....:._.
	0x0030:  0000 0000 a002 faf0 3ea4 0000 0204 05b4  ........>.......
	0x0040:  0402 080a 5e3e 5278 0000 0000 0103 0307  ....^>Rx........
23:00:39.652024 eth0  In  IP 20.207.73.82.443 > 192.168.31.172.39856: Flags [S.], seq 2749644755, ack 981884685, win 65535, options [mss 1282,sackOK,TS val 2425454780 ecr 1581142648,nop,wscale 10], length 0
	0x0000:  0800 0000 0000 0002 0001 0006 543d 60ab  ............T=`.
	0x0010:  4644 0000 4500 003c 00e1 4000 3006 0b66  FD..E..<..@.0..f
	0x0020:  14cf 4952 c0a8 1fac 01bb 9bb0 a3e4 3fd3  ..IR..........?.
	0x0030:  3a86 5f0d a012 ffff 2d6e 0000 0204 0502  :._.....-n......
	0x0040:  0402 080a 9091 80bc 5e3e 5278 0103 030a  ........^>Rx....
23:00:39.652066 eth0  Out IP 192.168.31.172.39856 > 20.207.73.82.443: Flags [.], ack 1, win 502, options [nop,nop,TS val 1581142710 ecr 2425454780], length 0
	0x0000:  0800 0000 0000 0002 0001 0406 bc24 1138  .............$.8
	0x0010:  b334 0000 4500 0034 2a85 4000 4006 d1c9  .4..E..4*.@.@...
	0x0020:  c0a8 1fac 14cf 4952 9bb0 01bb 3a86 5f0d  ......IR....:._.
	0x0030:  a3e4 3fd4 8010 01f6 3e9c 0000 0101 080a  ..?.....>.......
	0x0040:  5e3e 52b6 9091 80bc                      ^>R.....
23:00:39.681810 eth0  Out IP 192.168.31.172.39856 > 20.207.73.82.443: Flags [P.], seq 1:396, ack 1, win 502, options [nop,nop,TS val 1581142740 ecr 2425454780], length 395
	0x0000:  0800 0000 0000 0002 0001 0406 bc24 1138  .............$.8
	0x0010:  b334 0000 4500 01bf 2a86 4000 4006 d03d  .4..E...*.@.@..=
	0x0020:  c0a8 1fac 14cf 4952 9bb0 01bb 3a86 5f0d  ......IR....:._.
	0x0030:  a3e4 3fd4 8018 01f6 4027 0000 0101 080a  ..?.....@'......
	0x0040:  5e3e 52d4 9091 80bc 1603 0301 8601 0001  ^>R.............
	0x0050:  8203 0388 5261 79d7 efeb 2d03 e344 8c90  ....Ray...-..D..
	0x0060:  6925 99ad b495 0960 2578 e80d c1ce 9753  i%.....`%x.....S
	0x0070:  5482 1320 1ae9 6be5 a545 afa5 d5db dcb8  T.....k..E......
	0x0080:  7a0e be07 6e9f 04d0 3418 a88b 3917 051e  z...n...4...9...
	0x0090:  9dae 20b5 003a 1302 1303 1301 1304 c02c  .....:.........,
	0x00a0:  cca9 c0ad c00a c02b c0ac c009 c030 cca8  .......+.....0..
	0x00b0:  c014 c02f c013 009d c09d 0035 009c c09c  .../.......5....
	0x00c0:  002f 009f ccaa c09f 0039 009e c09e 0033  ./.......9.....3
	0x00d0:  0100 00ff 000d 0022 0020 0401 0809 0804  ......."........
	0x00e0:  0403 0807 0501 080a 0805 0503 0808 0601  ................
	0x00f0:  080b 0806 0603 0201 0203 000a 0016 0014  ................
	0x0100:  0017 0018 0019 001d 001e 0100 0101 0102  ................
	0x0110:  0103 0104 002b 0005 0403 0403 0300 0000  .....+..........
	0x0120:  0f00 0d00 000a 6769 7468 7562 2e63 6f6d  ......github.com
	0x0130:  ff01 0001 0000 0b00 0201 0000 1700 0000  ................
	0x0140:  1600 0000 1000 0e00 0c02 6832 0868 7474  ..........h2.htt
	0x0150:  702f 312e 3100 3300 6b00 6900 1700 4104  p/1.1.3.k.i...A.
	0x0160:  e94d 3f5e 84d4 4cdd 3ded cb02 982e 3cfa  .M?^..L.=.....<.
	0x0170:  a7da fbb3 5e70 a144 1763 ddfc 943c b218  ....^p.D.c...<..
	0x0180:  eed9 f0ee fee6 49ae b870 6bfd 7800 5a27  ......I..pk.x.Z'
	0x0190:  299f a907 dd77 e450 b064 09bd fce1 081b  )....w.P.d......
	0x01a0:  001d 0020 6553 72f5 35c5 9e49 f595 04ef  ....eSr.5..I....
	0x01b0:  ae90 4168 a17b 24fe 8a0f de0a f474 5fa9  ..Ah.{$......t_.
	0x01c0:  17e2 d63f 001c 0002 4001 0005 0005 0100  ...?....@.......
	0x01d0:  0000 00                                  ...
23:00:39.770501 eth0  In  IP 20.207.73.82.443 > 192.168.31.172.39856: Flags [P.], seq 2501:3139, ack 396, win 66, options [nop,nop,TS val 2425454900 ecr 1581142740], length 638
	0x0000:  0800 0000 0000 0002 0001 0006 543d 60ab  ............T=`.
	0x0010:  4644 0000 4500 02b2 01e1 4000 3006 07f0  FD..E.....@.0...
	0x0020:  14cf 4952 c0a8 1fac 01bb 9bb0 a3e4 4998  ..IR..........I.
	0x0030:  3a86 6098 8018 0042 dba5 0000 0101 080a  :.`....B........
	0x0040:  9091 8134 5e3e 52d4 d044 f92f ec7d 6ab6  ...4^>R..D./.}j.
	0x0050:  9f73 0139 c9e9 1f79 8990 c254 74dd 9f9f  .s.9...y...Tt...
	0x0060:  05d9 7cc3 4a5e d1a8 1cda afb3 2416 5319  ..|.J^......$.S.
	0x0070:  f38b d0c8 658a 97d4 9a21 0000 4b58 0bb5  ....e....!..KX..
	0x0080:  3e40 3cc7 086c 53c0 c876 7444 76e8 4327  >@<..lS..vtDv.C'
	0x0090:  dced 7772 4c79 a9d0 51a9 0965 9f61 de73  ..wrLy..Q..e.a.s
	0x00a0:  b712 1e6f 0b92 17e7 10af 897a b8f1 f909  ...o.......z....
	0x00b0:  179e 8dec 074e fa04 583f 8576 74f1 8898  .....N..X?.vt...
	0x00c0:  da73 ba2c d10a ba73 9202 314e 3d69 a6d2  .s.,...s..1N=i..
	0x00d0:  3512 72dd aba4 6e78 dad2 e6d7 46fc d520  5.r...nx....F...
	0x00e0:  8966 e924 a113 8c1b 2d54 57f3 d753 5a01  .f.$....-TW..SZ.
	0x00f0:  8341 534b 0626 a732 54ab 8dc8 b127 743d  .ASK.&.2T....'t=
	0x0100:  a003 f356 591c c341 04c2 822e ee4e e956  ...VY..A.....N.V
	0x0110:  c53b 19aa 07df 36b9 9547 345e 6f34 d7dd  .;....6..G4^o4..
	0x0120:  bc89 202b ff19 c6f2 68a5 840c 2de9 0243  ...+....h...-..C
	0x0130:  9afa 5435 e2ff a7c4 4f04 fda9 7981 081c  ..T5....O...y...
	0x0140:  4ea0 f379 e725 99df 9f6b 96d9 1d39 30aa  N..y.%...k...90.
	0x0150:  88e2 4b1e 0872 5ecf aafa 4d03 c501 7a34  ..K..r^...M...z4
	0x0160:  7227 8e32 31a3 a6d7 14ba d055 51e8 9ce3  r'.21......UQ...
	0x0170:  12b3 6942 4d0a 8ffd 4ca7 08e2 a867 18a0  ..iBM...L....g..
	0x0180:  9d22 4dd8 a90d 3a92 181e 5841 81b8 23aa  ."M...:...XA..#.
	0x0190:  556c 9817 7a0d 0fa6 1d20 e992 5e04 90b5  Ul..z.......^...
	0x01a0:  1093 d929 1ed5 88e5 9180 ec8d 79c9 949f  ...)........y...
	0x01b0:  c980 8f23 8e3e db48 859b d261 6691 2a40  ...#.>.H...af.*@
	0x01c0:  3f0c 7725 21d9 65de f749 9701 dd38 4135  ?.w%!.e..I...8A5
	0x01d0:  9de7 d1f0 24f5 2e3a b512 9108 aaa6 e239  ....$..:.......9
	0x01e0:  b55e 0590 2ace abed b067 60ac 583f 0780  .^..*....g`.X?..
	0x01f0:  a5cc 1fd4 4e36 fb67 d370 0541 d6e8 a605  ....N6.g.p.A....
	0x0200:  f3cf 55cc 0225 4d7b 2f33 fd02 ca7f 8893  ..U..%M{/3......
	0x0210:  78f1 948a cb1a 5ebf 7043 d26b 987c a386  x.....^.pC.k.|..
	0x0220:  8de1 f986 2cf1 7217 0303 0060 c34f c1fd  ....,.r....`.O..
	0x0230:  7d87 b338 8fd8 afeb dc53 490d 1233 13df  }..8.....SI..3..
	0x0240:  357f f922 06a9 a5b2 07d0 ab95 dae7 8195  5.."............
	0x0250:  c1ef 06d1 687b f2cc 3376 808d 9f04 1863  ....h{..3v.....c
	0x0260:  4f99 07b8 83ab fb58 40ec 15e5 5aef c0d4  O......X@...Z...
	0x0270:  8911 9043 e8da e2d5 04e5 684f f246 1081  ...C......hO.F..
	0x0280:  4a6d d160 b530 f0e5 ef2b f255 1703 0300  Jm.`.0...+.U....
	0x0290:  35b0 00dd 0a5e 0d91 1ef5 7c6e 455b 0655  5....^....|nE[.U
	0x02a0:  9b37 efdc af60 ed99 f06f ee13 ba8b 64eb  .7...`...o....d.
	0x02b0:  3d68 d17e 55c1 3275 3842 02ce 53a7 5121  =h.~U.2u8B..S.Q!
	0x02c0:  2c4f e6c7 bceb                           ,O....
23:00:39.770534 eth0  Out IP 192.168.31.172.39856 > 20.207.73.82.443: Flags [.], ack 1, win 502, options [nop,nop,TS val 1581142829 ecr 2425454780,nop,nop,sack 1 {2501:3139}], length 0
	0x0000:  0800 0000 0000 0002 0001 0406 bc24 1138  .............$.8
	0x0010:  b334 0000 4500 0040 2a87 4000 4006 d1bb  .4..E..@*.@.@...
	0x0020:  c0a8 1fac 14cf 4952 9bb0 01bb 3a86 6098  ......IR....:.`.
	0x0030:  a3e4 3fd4 b010 01f6 3ea8 0000 0101 080a  ..?.....>.......
	0x0040:  5e3e 532d 9091 80bc 0101 050a a3e4 4998  ^>S-..........I.
	0x0050:  a3e4 4c16                                ..L.
23:00:39.770502 eth0  In  IP 20.207.73.82.443 > 192.168.31.172.39856: Flags [.], seq 1:1251, ack 396, win 66, options [nop,nop,TS val 2425454900 ecr 1581142740], length 1250
	0x0000:  0800 0000 0000 0002 0001 0006 543d 60ab  ............T=`.
	0x0010:  4644 0000 4500 0516 02e1 4000 3006 048c  FD..E.....@.0...
	0x0020:  14cf 4952 c0a8 1fac 01bb 9bb0 a3e4 3fd4  ..IR..........?.
	0x0030:  3a86 6098 8010 0042 f745 0000 0101 080a  :.`....B.E......
	0x0040:  9091 8134 5e3e 52d4 1603 0300 9b02 0000  ...4^>R.........
	0x0050:  9703 03c6 39f2 627c 1c24 363f 6636 6ece  ....9.b|.$6?f6n.
	0x0060:  bf4a 2c29 b579 6de5 f478 663d 9791 80f5  .J,).ym..xf=....
	0x0070:  6c11 ae20 1ae9 6be5 a545 afa5 d5db dcb8  l.....k..E......
	0x0080:  7a0e be07 6e9f 04d0 3418 a88b 3917 051e  z...n...4...9...
	0x0090:  9dae 20b5 1301 0000 4f00 2b00 0203 0400  ........O.+.....
	0x00a0:  3300 4500 1700 4104 02af 191b 4f08 3879  3.E...A.....O.8y
	0x00b0:  df17 960d 0af7 f65a 7bb5 1a94 5c47 97ca  .......Z{...\G..
	0x00c0:  787e e14b 12d2 f97f 390f c116 002d 1c02  x~.K....9....-..
	0x00d0:  817f f5b7 bea2 d733 4630 5dae f487 16cd  .......3F0].....
	0x00e0:  211d 045d 2e27 8287 1403 0300 0101 1703  !..].'..........
	0x00f0:  0300 2ee1 96bd 0e31 f8c8 8bef 4b25 ba80  .......1....K%..
	0x0100:  4d76 4f0a 611b 2e20 16a9 b2f2 f4e8 66c5  MvO.a.........f.
	0x0110:  a488 178d f737 14fe 7001 e2ba a8d3 dd9c  .....7..p.......
	0x0120:  2317 0303 0ac5 9e29 139e 5126 a7e1 ac35  #......)..Q&...5
	0x0130:  4f51 c124 09d6 5c35 e2d2 30d5 563e d063  OQ.$..\5..0.V>.c
	0x0140:  075e c73c 2718 5e42 ce91 b718 008b 2708  .^.<'.^B......'.
	0x0150:  a070 c191 5b94 6ffe 9148 bc41 0763 77a5  .p..[.o..H.A.cw.
	0x0160:  6d0c 73bf fe97 855b 4543 6f14 8d96 44dc  m.s....[ECo...D.
	0x0170:  d84a 03fa 8bfb 1122 3234 2f0a f283 814e  .J....."24/....N
	0x0180:  d7d9 b858 a65f 438c ea10 bba3 2c5a 5617  ...X._C.....,ZV.
	0x0190:  767a 3f69 f6e8 85ad 4985 5fc7 fd37 3362  vz?i....I._..73b
	0x01a0:  f935 3657 e419 bfa5 ee3c 65b5 b37a 678c  .56W.....<e..zg.
	0x01b0:  99d5 5789 35d6 88f3 31bc ce1b 6d76 e2b9  ..W.5...1...mv..
	0x01c0:  5fbd 54dc 4a89 059d 7828 2e9c 5570 70d0  _.T.J...x(..Upp.
	0x01d0:  cd56 67bf 59eb 0794 b2fa b2a3 2431 a51d  .Vg.Y.......$1..
	0x01e0:  b492 300b 2555 1b47 46b3 6849 5a3b 7b5a  ..0.%U.GF.hIZ;{Z
	0x01f0:  0bbd 0415 e79a 5c44 0d0f 879b 754f e373  ......\D....uO.s
	0x0200:  c3ce 41df b7d9 85f9 45d4 691a 5071 4138  ..A.....E.i.PqA8
	0x0210:  ee9c 4ed8 59c3 18cf f2c6 9ff7 7a3e b17a  ..N.Y.......z>.z
	0x0220:  4d26 6fad 4bb2 72db b827 7bf5 e7d8 dc2c  M&o.K.r..'{....,
	0x0230:  78a2 3cca 034b 3da5 5817 bee9 549c 094d  x.<..K=.X...T..M
	0x0240:  0daf 51ac e0c1 4bf1 f02e 829a 22ca 1b20  ..Q...K....."...
	0x0250:  2d8e a3bb b5d1 ff68 9b88 536b 01b7 3d98  -......h..Sk..=.
	0x0260:  cc22 9575 cdbb 4bc2 5308 1cfb 785e 743f  .".u..K.S...x^t?
	0x0270:  1fd0 67ef 3f15 a5aa 9387 2d67 ac03 4749  ..g.?.....-g..GI
	0x0280:  c6d4 5916 fa23 081e 76f7 03a9 d400 bb40  ..Y..#..v......@
	0x0290:  b6d2 9dcf 6a3d b216 b511 55e0 59c1 611c  ....j=....U.Y.a.
	0x02a0:  d10f 33f9 6961 f511 9ef4 ff56 65de f303  ..3.ia.....Ve...
	0x02b0:  2cce 52c2 2a7d c653 14d4 3d17 cf05 8e01  ,.R.*}.S..=.....
	0x02c0:  82ca 1519 0ad3 b4cd 2bca b216 a913 b77b  ........+......{
	0x02d0:  dfd1 af3e 84a5 cbf2 aab6 c722 ed76 a9b7  ...>.......".v..
	0x02e0:  1fa3 596a 25ee 541e a2a2 7c1c 4689 9794  ..Yj%.T...|.F...
	0x02f0:  a071 cf63 b5f3 ba2b c999 9289 c1e5 2f4f  .q.c...+....../O
	0x0300:  1d32 63e1 e01e bf84 b1a5 d877 72d8 7171  .2c........wr.qq
	0x0310:  3a69 aa41 e28b 9a81 c8a1 2325 d63c d724  :i.A......#%.<.$
	0x0320:  447c 6dca 1ff7 9e83 da55 061b 80d1 9022  D|m......U....."
	0x0330:  32b4 9498 e59f c8e3 40e7 16e4 98fc 6196  2.......@.....a.
	0x0340:  411c 70e5 2293 92c4 603a e21c c7fd f0c1  A.p."...`:......
	0x0350:  711f 807b 1d07 296d c511 dcd1 e779 08e6  q..{..)m.....y..
	0x0360:  e5de 13df 6239 74ed 81e2 1c17 64d9 527a  ....b9t.....d.Rz
	0x0370:  0cd1 34dc 1c73 7aad 6c26 1c88 f7af dfb1  ..4..sz.l&......
	0x0380:  35c3 5945 2f24 99eb 80b3 a44f 096f f84e  5.YE/$.....O.o.N
	0x0390:  5c31 2574 a225 0b21 214f dd28 2dbe 13b0  \1%t.%.!!O.(-...
	0x03a0:  d8c8 9c3e 687d c535 6411 3a93 22cf e09d  ...>h}.5d.:."...
	0x03b0:  ad0d 2f8b 586c 114f 2d03 9c29 b46b 99c4  ../.Xl.O-..).k..
	0x03c0:  4577 ec90 a1c7 296b 9aa9 e296 c8f3 c9bb  Ew....)k........
	0x03d0:  7be6 22e3 80d9 5760 0f3c 9c11 f8f4 1b0e  {."...W`.<......
	0x03e0:  264b 22c8 ad10 b389 8ab3 30c9 7738 3d8f  &K".......0.w8=.
	0x03f0:  ec77 06ea 831e c7e5 bee1 ab10 74c3 5729  .w..........t.W)
	0x0400:  0929 3b1f 6eb5 1e59 6c18 f3e5 401b 5647  .);.n..Yl...@.VG
	0x0410:  87c0 f37a e77e 9d64 beb9 7855 2acf b818  ...z.~.d..xU*...
	0x0420:  5864 1459 553a 0ae3 aa80 4d9c 9e15 5310  Xd.YU:....M...S.
	0x0430:  737f 4e7e 7f60 14be 2efa 9239 d0d9 3078  s.N~.`.....9..0x
	0x0440:  affb a8a1 9829 6392 42e0 0cc1 cf26 0b7c  .....)c.B....&.|
	0x0450:  2269 f5c9 9490 6caa db8a 9ace 508c 9369  "i....l.....P..i
	0x0460:  b324 33ba fad3 aad5 7e97 fa3c c630 916c  .$3.....~..<.0.l
	0x0470:  00bc 1d4f 81ac c8d4 57f1 9920 b0cb b2cf  ...O....W.......
	0x0480:  d6c1 a1cc d796 60d7 cb1c 6ddc ff42 c695  ......`...m..B..
	0x0490:  99d8 fc3b 2b71 f047 84db e22a 0ba0 a961  ...;+q.G...*...a
	0x04a0:  3fac 7cb3 cfc1 be13 3d3d 26f5 1388 3e3f  ?.|.....==&...>?
	0x04b0:  3bd9 1ff4 eb53 97e5 335e ddd4 9865 4cf3  ;....S..3^...eL.
	0x04c0:  ccaf b9ec dabb 4fe6 e0a0 98c7 9cbe 3520  ......O.......5.
	0x04d0:  43cc 4320 09a3 3e06 f0cb 1073 e5d7 b631  C.C...>....s...1
	0x04e0:  9bfe b003 d862 f1b5 da18 0737 17d0 db10  .....b.....7....
	0x04f0:  1bd0 b6d7 ad67 1aea 3f71 f220 f41e 71d6  .....g..?q....q.
	0x0500:  ccd6 329d 189a 2a1b 75a7 4e42 6155 8d00  ..2...*.u.NBaU..
	0x0510:  7a9d b8bf 45a5 d3ad d1dd 4d88 da72 47de  z...E.....M..rG.
	0x0520:  a5d3 2237 d922 9627 5ab4                 .."7.".'Z.
23:00:39.770546 eth0  Out IP 192.168.31.172.39856 > 20.207.73.82.443: Flags [.], ack 1251, win 525, options [nop,nop,TS val 1581142829 ecr 2425454900,nop,nop,sack 1 {2501:3139}], length 0
	0x0000:  0800 0000 0000 0002 0001 0406 bc24 1138  .............$.8
	0x0010:  b334 0000 4500 0040 2a88 4000 4006 d1ba  .4..E..@*.@.@...
	0x0020:  c0a8 1fac 14cf 4952 9bb0 01bb 3a86 6098  ......IR....:.`.
	0x0030:  a3e4 44b6 b010 020d 3ea8 0000 0101 080a  ..D.....>.......
	0x0040:  5e3e 532d 9091 8134 0101 050a a3e4 4998  ^>S-...4......I.
	0x0050:  a3e4 4c16                                ..L.
23:00:39.770503 eth0  In  IP 20.207.73.82.443 > 192.168.31.172.39856: Flags [P.], seq 1251:2501, ack 396, win 66, options [nop,nop,TS val 2425454900 ecr 1581142740], length 1250
	0x0000:  0800 0000 0000 0002 0001 0006 543d 60ab  ............T=`.
	0x0010:  4644 0000 4500 0516 03e1 4000 3006 038c  FD..E.....@.0...
	0x0020:  14cf 4952 c0a8 1fac 01bb 9bb0 a3e4 44b6  ..IR..........D.
	0x0030:  3a86 6098 8018 0042 8f3f 0000 0101 080a  :.`....B.?......
	0x0040:  9091 8134 5e3e 52d4 da5f dbcb 414a 2161  ...4^>R.._..AJ!a
	0x0050:  1c63 cab4 a0f5 3d61 87b5 4368 ecd1 977a  .c....=a..Ch...z
	0x0060:  3e01 4f5a d571 d2b2 50ee 4972 27b2 aa19  >.OZ.q..P.Ir'...
	0x0070:  56db a662 7450 7bb3 0188 2db6 f045 adfe  V..btP{...-..E..
	0x0080:  04b6 b43f 9517 a210 d7b9 5750 54d1 e000  ...?......WPT...
	0x0090:  0e69 e0f8 f161 9438 d28b bd1d 1f2e ff67  .i...a.8.......g
	0x00a0:  185e aaa5 b3a3 cfb9 ae07 b2a3 4e2f 5612  .^..........N/V.
	0x00b0:  c65d 1501 08dd f53f 4011 b687 7461 edbd  .].....?@...ta..
	0x00c0:  4fee 87d8 f164 6e5b b1ed a647 3bb4 01d0  O....dn[...G;...
	0x00d0:  485d c271 1ac4 92ac 763c 061e 9c14 7db4  H].q....v<....}.
	0x00e0:  3ce0 59b7 3b09 4c89 da5b 08f5 896f 3c97  <.Y.;.L..[...o<.
	0x00f0:  ca99 42f7 d21c 235e 0309 dbb2 2b9c 7b84  ..B...#^....+.{.
	0x0100:  3c51 ba8f a4f5 0390 2aa3 7d35 f6e5 cd4e  <Q......*.}5...N
	0x0110:  7a54 317c b5d3 ae98 e354 a546 576e 6c72  zT1|.....T.FWnlr
	0x0120:  b384 cab3 f560 f3b3 9c20 49b7 8fc9 d715  .....`....I.....
	0x0130:  54ac 0edd 787c 677c e77b 4ed5 6315 1390  T...x|g|.{N.c...
	0x0140:  7a46 a22a e744 b3f3 e3e5 27da f83d ec89  zF.*.D....'..=..
	0x0150:  13a7 5258 84c1 f6cc 80cc a003 7808 eecd  ..RX........x...
	0x0160:  ac81 f25a a925 0ed8 e937 36bd a8fb 10e0  ...Z.%...76.....
	0x0170:  67ab 65ea c5d4 762d ec07 d7a6 239a 4740  g.e...v-....#.G@
	0x0180:  571e d6d5 36b0 a49e fa83 fa39 3661 731a  W...6......96as.
	0x0190:  743e 0bd6 bf63 f50c c793 9239 b8c9 5eec  t>...c.....9..^.
	0x01a0:  b6ba f36e 674a faa7 b656 0902 d717 e407  ...ngJ...V......
	0x01b0:  7331 be8c dc64 ba47 013d 385c 9d29 ff3a  s1...d.G.=8\.).:
	0x01c0:  f696 d7b3 c89a b0ae 9dce 3178 a7d4 199a  ..........1x....
	0x01d0:  f209 c07d 08fe 6339 a998 7be5 c354 22d0  ...}..c9..{..T".
	0x01e0:  2c57 3611 5092 bf0e 7b6c 99fe a10e 65ac  ,W6.P...{l....e.
	0x01f0:  6bdf a4bc df23 078b 45b1 c4e6 208e 8705  k....#..E.......
	0x0200:  055a 0f92 4d2f e190 0594 4a01 b42b f5b2  .Z..M/....J..+..
	0x0210:  4c07 182f f8ad f077 3c43 162d f58a 35ba  L../...w<C.-..5.
	0x0220:  4e18 3523 2889 db3a 9455 6ff7 7c63 515a  N.5#(..:.Uo.|cQZ
	0x0230:  c869 105a 60e0 82ae eeab bdfc 249e 66da  .i.Z`.......$.f.
	0x0240:  de98 5566 0e06 33a4 a467 d9d2 c357 8b71  ..Uf..3..g...W.q
	0x0250:  affa 5dfe 2834 60dc 7a4a 5a84 2fb6 c19e  ..].(4`.zJZ./...
	0x0260:  b68a 9ec6 8d36 2ebd 6d4e 0f6e ec9b e988  .....6..mN.n....
	0x0270:  cdfe df6c d293 82c1 55de e70f c319 f019  ...l....U.......
	0x0280:  e800 2d2b ceee 496b db56 0509 7f2d 39d4  ..-+..Ik.V...-9.
	0x0290:  a54c a2fe a5cd 4b23 9d7f 7bf8 66c8 e742  .L....K#..{.f..B
	0x02a0:  a1f6 febc 5085 4cca f3e1 25d4 7979 4542  ....P.L...%.yyEB
	0x02b0:  ce4e da1f 0049 4b10 612a 0dd5 b507 fa2c  .N...IK.a*.....,
	0x02c0:  681b eb4a 173a 0de9 1e14 bb9a b605 8f50  h..J.:.........P
	0x02d0:  6048 3363 104c 651a e5f7 251a fe8e aef9  `H3c.Le...%.....
	0x02e0:  e4de eec4 d4dc 4976 5960 4256 ca82 8545  ......IvY`BV...E
	0x02f0:  aa85 df8b caad 24d3 8df7 2002 984b e7f2  ......$......K..
	0x0300:  8573 2b37 9be1 82bd 165c 0239 e906 806c  .s+7.....\.9...l
	0x0310:  7315 2fbc a7c8 1625 2952 8f88 bada 2802  s./....%)R....(.
	0x0320:  1fa3 1283 1035 c44b 8c5a 4a67 dc38 67aa  .....5.K.ZJg.8g.
	0x0330:  7806 f555 d670 b496 19a3 a3bf 452a 7f71  x..U.p......E*.q
	0x0340:  9180 d824 d089 d419 0b66 989d 12a8 2034  ...$.....f.....4
	0x0350:  6e62 c93a 7a6b 93a9 2f69 d12a 2246 5d0a  nb.:zk../i.*"F].
	0x0360:  4ff2 9aea 4e56 5107 08ef 849e 49e3 4bc6  O...NVQ.....I.K.
	0x0370:  9f35 a98b db04 82d4 b23a b6d4 56af 8ae7  .5.......:..V...
	0x0380:  cf48 65c5 e9d4 28ab d9c3 9854 06ff 5af2  .He...(....T..Z.
	0x0390:  1ef9 715b 86c3 d1fc 8ef5 2d4e f875 a3db  ..q[......-N.u..
	0x03a0:  fa9e ca50 de8d 2295 0c81 f42f bdc4 2c52  ...P.."..../..,R
	0x03b0:  5f86 b6ae d291 51db 8932 5ba7 3da5 272b  _.....Q..2[.=.'+
	0x03c0:  d7c9 83d3 8dab db15 e666 7547 1e73 05e2  .........fuG.s..
	0x03d0:  cfb4 71d8 a33a c9dc 724a 28b2 0d24 29ba  ..q..:..rJ(..$).
	0x03e0:  8797 9bd0 4bfc e8d4 00ba 2f0d 16ce b04e  ....K...../....N
	0x03f0:  efc2 a487 9dfc b818 db94 3a83 3cab 3e0d  ..........:.<.>.
	0x0400:  a9fd 9b6b cb28 361a a55c f657 3831 0d34  ...k.(6..\.W81.4
	0x0410:  01f9 dbe4 bd21 ed47 1be1 3046 7110 6955  .....!.G..0Fq.iU
	0x0420:  ee9a 5c8f 3457 e53f 7f0f fbd5 746b e17f  ..\.4W.?....tk..
	0x0430:  16a1 466a 9a9b 0b85 a406 31fc 73b8 7bb5  ..Fj......1.s.{.
	0x0440:  f214 6c3b 1280 ddf1 9d9c 2af7 f186 6427  ..l;......*...d'
	0x0450:  f15e ac26 34db 35cc eaa9 59f4 e420 2304  .^.&4.5...Y...#.
	0x0460:  61b2 a710 124d d6ec d9c2 ed07 b941 31f1  a....M.......A1.
	0x0470:  13a3 9548 a1d2 6653 b60b eef0 990e a627  ...H..fS.......'
	0x0480:  9c20 7817 a0bb 04ac 466b 32bc 0a0a e96b  ..x.....Fk2....k
	0x0490:  b8d5 be37 a655 1592 6ea2 da61 732f 0923  ...7.U..n..as/.#
	0x04a0:  3ae6 4273 1b6d c257 0650 3a52 1495 38cf  :.Bs.m.W.P:R..8.
	0x04b0:  6eee 34a1 38f1 696d 7b5b 4439 18cb 1fb9  n.4.8.im{[D9....
	0x04c0:  0a1a 38a9 1c49 43e8 13ab eeaa 6367 4ff9  ..8..IC.....cgO.
	0x04d0:  3256 3c17 64e9 8db8 dd66 c1e6 d8be 9758  2V<.d....f.....X
	0x04e0:  cba5 8f24 46b7 bd35 ff68 ffac ea98 62dc  ...$F..5.h....b.
	0x04f0:  0693 d41d a0e0 dbbf 7ef3 e55a 94a7 37fe  ........~..Z..7.
	0x0500:  b4aa 1735 62ed a578 222c a05b 567c bdd3  ...5b..x",.[V|..
	0x0510:  f271 ae6f 5b0f 0588 69d7 7d81 e759 0eca  .q.o[...i.}..Y..
	0x0520:  18c9 3cf6 80bd 57b9 c7f2                 ..<...W...
23:00:39.770549 eth0  Out IP 192.168.31.172.39856 > 20.207.73.82.443: Flags [.], ack 3139, win 548, options [nop,nop,TS val 1581142829 ecr 2425454900], length 0
	0x0000:  0800 0000 0000 0002 0001 0406 bc24 1138  .............$.8
	0x0010:  b334 0000 4500 0034 2a89 4000 4006 d1c5  .4..E..4*.@.@...
	0x0020:  c0a8 1fac 14cf 4952 9bb0 01bb 3a86 6098  ......IR....:.`.
	0x0030:  a3e4 4c16 8010 0224 3e9c 0000 0101 080a  ..L....$>.......
	0x0040:  5e3e 532d 9091 8134                      ^>S-...4
23:00:39.770760 eth0  Out IP 192.168.31.172.39856 > 20.207.73.82.443: Flags [P.], seq 396:402, ack 3139, win 548, options [nop,nop,TS val 1581142829 ecr 2425454900], length 6
	0x0000:  0800 0000 0000 0002 0001 0406 bc24 1138  .............$.8
	0x0010:  b334 0000 4500 003a 2a8a 4000 4006 d1be  .4..E..:*.@.@...
	0x0020:  c0a8 1fac 14cf 4952 9bb0 01bb 3a86 6098  ......IR....:.`.
	0x0030:  a3e4 4c16 8018 0224 3ea2 0000 0101 080a  ..L....$>.......
	0x0040:  5e3e 532d 9091 8134 1403 0300 0101       ^>S-...4......
23:00:39.771116 eth0  Out IP 192.168.31.172.39856 > 20.207.73.82.443: Flags [P.], seq 402:460, ack 3139, win 548, options [nop,nop,TS val 1581142829 ecr 2425454900], length 58
	0x0000:  0800 0000 0000 0002 0001 0406 bc24 1138  .............$.8
	0x0010:  b334 0000 4500 006e 2a8b 4000 4006 d189  .4..E..n*.@.@...
	0x0020:  c0a8 1fac 14cf 4952 9bb0 01bb 3a86 609e  ......IR....:.`.
	0x0030:  a3e4 4c16 8018 0224 3ed6 0000 0101 080a  ..L....$>.......
	0x0040:  5e3e 532d 9091 8134 1703 0300 35c3 7eea  ^>S-...4....5.~.
	0x0050:  d625 5115 f90a e5d2 3575 749f c44c 9712  .%Q.....5ut..L..
	0x0060:  a501 2b6d 463c 3c0c 3550 6d4a c79e d5ac  ..+mF<<.5PmJ....
	0x0070:  d6e0 b54f 247a a449 0a23 07b7 62b0 7593  ...O$z.I.#..b.u.
	0x0080:  238f                                     #.
23:00:39.772895 eth0  Out IP 192.168.31.172.39856 > 20.207.73.82.443: Flags [P.], seq 460:546, ack 3139, win 548, options [nop,nop,TS val 1581142831 ecr 2425454900], length 86
	0x0000:  0800 0000 0000 0002 0001 0406 bc24 1138  .............$.8
	0x0010:  b334 0000 4500 008a 2a8c 4000 4006 d16c  .4..E...*.@.@..l
	0x0020:  c0a8 1fac 14cf 4952 9bb0 01bb 3a86 60d8  ......IR....:.`.
	0x0030:  a3e4 4c16 8018 0224 3ef2 0000 0101 080a  ..L....$>.......
	0x0040:  5e3e 532f 9091 8134 1703 0300 5107 5644  ^>S/...4....Q.VD
	0x0050:  07aa c262 b6a0 3803 adce 16ed 02d4 10b8  ...b..8.........
	0x0060:  ab44 8797 0391 3681 5642 e47a ae48 d408  .D....6.VB.z.H..
	0x0070:  cb5e da10 6e45 ab0f 6cb7 0568 fc5e 8744  .^..nE..l..h.^.D
	0x0080:  4ff6 9afc d84b c5c1 8677 9e00 a49f 2432  O....K...w....$2
	0x0090:  7058 5275 dfa1 a3c0 5faf 1d98 2708       pXRu...._...'.
23:00:39.772941 eth0  Out IP 192.168.31.172.39856 > 20.207.73.82.443: Flags [P.], seq 546:691, ack 3139, win 548, options [nop,nop,TS val 1581142831 ecr 2425454900], length 145
	0x0000:  0800 0000 0000 0002 0001 0406 bc24 1138  .............$.8
	0x0010:  b334 0000 4500 00c5 2a8d 4000 4006 d130  .4..E...*.@.@..0
	0x0020:  c0a8 1fac 14cf 4952 9bb0 01bb 3a86 612e  ......IR....:.a.
	0x0030:  a3e4 4c16 8018 0224 3f2d 0000 0101 080a  ..L....$?-......
	0x0040:  5e3e 532f 9091 8134 1703 0300 8c5e a797  ^>S/...4.....^..
	0x0050:  90bb 62b2 a2b1 c668 f520 4c42 82c2 4052  ..b....h..LB..@R
	0x0060:  9f70 4e35 0aa5 2bad 2a32 b8b6 f0e2 29e1  .pN5..+.*2....).
	0x0070:  3a4b 8112 c2ac e797 f287 bd31 6c3b fb1f  :K.........1l;..
	0x0080:  98e5 d1d3 d063 7311 c60f 1660 07bd 9f5b  .....cs....`...[
	0x0090:  6798 7ab1 b1f5 c423 176c bf02 259b 1632  g.z....#.l..%..2
	0x00a0:  eeea e85a fdaf fe1c 7c89 af14 c5eb ead2  ...Z....|.......
	0x00b0:  e28f 8b1b 499c 3470 64c0 b90e 5047 e25e  ....I.4pd...PG.^
	0x00c0:  3204 35ca f33b cf30 7780 a723 e810 33ad  2.5..;.0w..#..3.
	0x00d0:  e7c5 e1a4 efd0 0b7b f6                   .......{.
23:00:39.849713 eth0  In  IP 20.207.73.82.443 > 192.168.31.172.39856: Flags [.], ack 402, win 67, options [nop,nop,TS val 2425454980 ecr 1581142829,nop,nop,sack 1 {460:546}], length 0
	0x0000:  0800 0000 0000 0002 0001 0006 543d 60ab  ............T=`.
	0x0010:  4644 0000 4500 0040 06e1 4000 3006 0562  FD..E..@..@.0..b
	0x0020:  14cf 4952 c0a8 1fac 01bb 9bb0 a3e4 4c16  ..IR..........L.
	0x0030:  3a86 609e b010 0043 decd 0000 0101 080a  :.`....C........
	0x0040:  9091 8184 5e3e 532d 0101 050a 3a86 60d8  ....^>S-....:.`.
	0x0050:  3a86 612e                                :.a.
23:00:39.850092 eth0  In  IP 20.207.73.82.443 > 192.168.31.172.39856: Flags [.], ack 402, win 68, options [nop,nop,TS val 2425454980 ecr 1581142829,nop,nop,sack 1 {460:691}], length 0
	0x0000:  0800 0000 0000 0002 0001 0006 543d 60ab  ............T=`.
	0x0010:  4644 0000 4500 0040 07e1 4000 3006 0462  FD..E..@..@.0..b
	0x0020:  14cf 4952 c0a8 1fac 01bb 9bb0 a3e4 4c16  ..IR..........L.
	0x0030:  3a86 609e b010 0044 de3b 0000 0101 080a  :.`....D.;......
	0x0040:  9091 8184 5e3e 532d 0101 050a 3a86 60d8  ....^>S-....:.`.
	0x0050:  3a86 61bf                                :.a.
23:00:39.850224 eth0  In  IP 20.207.73.82.443 > 192.168.31.172.39856: Flags [.], ack 402, win 68, options [nop,nop,TS val 2425454980 ecr 1581142829,nop,nop,sack 1 {460:691}], length 0
	0x0000:  0800 0000 0000 0002 0001 0006 543d 60ab  ............T=`.
	0x0010:  4644 0000 4500 0040 08e1 4000 3006 0362  FD..E..@..@.0..b
	0x0020:  14cf 4952 c0a8 1fac 01bb 9bb0 a3e4 4c16  ..IR..........L.
	0x0030:  3a86 609e b010 0044 de3b 0000 0101 080a  :.`....D.;......
	0x0040:  9091 8184 5e3e 532d 0101 050a 3a86 60d8  ....^>S-....:.`.
	0x0050:  3a86 61bf                                :.a.
23:00:39.850598 eth0  In  IP 20.207.73.82.443 > 192.168.31.172.39856: Flags [.], ack 691, win 68, options [nop,nop,TS val 2425454980 ecr 1581142829], length 0
	0x0000:  0800 0000 0000 0002 0001 0006 543d 60ab  ............T=`.
	0x0010:  4644 0000 4500 0034 09e1 4000 3006 026e  FD..E..4..@.0..n
	0x0020:  14cf 4952 c0a8 1fac 01bb 9bb0 a3e4 4c16  ..IR..........L.
	0x0030:  3a86 61bf 8010 0044 4ad6 0000 0101 080a  :.a....DJ.......
	0x0040:  9091 8184 5e3e 532d                      ....^>S-
23:00:39.855774 eth0  In  IP 20.207.73.82.443 > 192.168.31.172.39856: Flags [P.], seq 3139:3218, ack 691, win 68, options [nop,nop,TS val 2425454980 ecr 1581142829], length 79
	0x0000:  0800 0000 0000 0002 0001 0006 543d 60ab  ............T=`.
	0x0010:  4644 0000 4500 0083 0ae1 4000 3006 011f  FD..E.....@.0...
	0x0020:  14cf 4952 c0a8 1fac 01bb 9bb0 a3e4 4c16  ..IR..........L.
	0x0030:  3a86 61bf 8018 0044 fee8 0000 0101 080a  :.a....D........
	0x0040:  9091 8184 5e3e 532d 1703 0300 4a4d 26f6  ....^>S-....JM&.
	0x0050:  aca4 2226 f1fe 3085 e7a7 0e17 3f3c 17f4  .."&..0.....?<..
	0x0060:  5210 1fbe b969 67e8 c5f4 ea22 eba2 4a99  R....ig...."..J.
	0x0070:  9767 3fd1 57da 310b c17f 101a b567 9da6  .g?.W.1......g..
	0x0080:  8701 2d37 9468 b1de ebce 79c4 2bf5 e5ef  ..-7.h....y.+...
	0x0090:  12f2 2278 f472 e8                        .."x.r.
23:00:39.855775 eth0  In  IP 20.207.73.82.443 > 192.168.31.172.39856: Flags [P.], seq 3218:3297, ack 691, win 68, options [nop,nop,TS val 2425454980 ecr 1581142829], length 79
	0x0000:  0800 0000 0000 0002 0001 0006 543d 60ab  ............T=`.
	0x0010:  4644 0000 4500 0083 0be1 4000 3006 001f  FD..E.....@.0...
	0x0020:  14cf 4952 c0a8 1fac 01bb 9bb0 a3e4 4c65  ..IR..........Le
	0x0030:  3a86 61bf 8018 0044 8fc5 0000 0101 080a  :.a....D........
	0x0040:  9091 8184 5e3e 532d 1703 0300 4a34 3825  ....^>S-....J48%
	0x0050:  2938 daf5 5408 82dc 7685 76d3 eeba 2d63  )8..T...v.v...-c
	0x0060:  659f 7e33 ddc8 6fbf c2ca e394 85a7 afb5  e.~3..o.........
	0x0070:  8bd2 7d19 b3e5 6f41 e57a a7e6 f177 f49a  ..}...oA.z...w..
	0x0080:  3343 ef66 9fdb e1ff 2a11 9b38 65e2 0cbb  3C.f....*..8e...
	0x0090:  ec73 9aec e716 42                        .s....B
23:00:39.855823 eth0  In  IP 20.207.73.82.443 > 192.168.31.172.39856: Flags [P.], seq 3297:3361, ack 691, win 68, options [nop,nop,TS val 2425454980 ecr 1581142829], length 64
	0x0000:  0800 0000 0000 0002 0001 0006 543d 60ab  ............T=`.
	0x0010:  4644 0000 4500 0074 0ce1 4000 3006 ff2d  FD..E..t..@.0..-
	0x0020:  14cf 4952 c0a8 1fac 01bb 9bb0 a3e4 4cb4  ..IR..........L.
	0x0030:  3a86 61bf 8018 0044 1170 0000 0101 080a  :.a....D.p......
	0x0040:  9091 8184 5e3e 532d 1703 0300 3ba6 f59e  ....^>S-....;...
	0x0050:  66c2 81fa 28d2 eec3 d3e0 45f8 914e 41dd  f...(.....E..NA.
	0x0060:  a8e3 e759 acec d818 0f41 8029 8061 c965  ...Y.....A.).a.e
	0x0070:  0bfe 8a94 0f63 1720 7742 eb36 cdbd 61d9  .....c..wB.6..a.
	0x0080:  1ab3 ff35 8ac8 1d93                      ...5....
23:00:39.855882 eth0  Out IP 192.168.31.172.39856 > 20.207.73.82.443: Flags [.], ack 3361, win 548, options [nop,nop,TS val 1581142914 ecr 2425454980], length 0
	0x0000:  0800 0000 0000 0002 0001 0406 bc24 1138  .............$.8
	0x0010:  b334 0000 4500 0034 2a8e 4000 4006 d1c0  .4..E..4*.@.@...
	0x0020:  c0a8 1fac 14cf 4952 9bb0 01bb 3a86 61bf  ......IR....:.a.
	0x0030:  a3e4 4cf4 8010 0224 3e9c 0000 0101 080a  ..L....$>.......
	0x0040:  5e3e 5382 9091 8184                      ^>S.....
23:00:39.855904 eth0  Out IP 192.168.31.172.39856 > 20.207.73.82.443: Flags [P.], seq 691:722, ack 3361, win 548, options [nop,nop,TS val 1581142914 ecr 2425454980], length 31
	0x0000:  0800 0000 0000 0002 0001 0406 bc24 1138  .............$.8
	0x0010:  b334 0000 4500 0053 2a8f 4000 4006 d1a0  .4..E..S*.@.@...
	0x0020:  c0a8 1fac 14cf 4952 9bb0 01bb 3a86 61bf  ......IR....:.a.
	0x0030:  a3e4 4cf4 8018 0224 3ebb 0000 0101 080a  ..L....$>.......
	0x0040:  5e3e 5382 9091 8184 1703 0300 1abb 792c  ^>S...........y,
	0x0050:  1274 db47 0daa 90ac 5273 fbb8 27b5 948f  .t.G....Rs..'...
	0x0060:  6a3b 83f2 c63d cb                        j;...=.
23:00:39.977810 eth0  In  IP 20.207.73.82.443 > 192.168.31.172.39856: Flags [.], ack 722, win 68, options [nop,nop,TS val 2425455108 ecr 1581142914], length 0
	0x0000:  0800 0000 0000 0002 0001 0006 543d 60ab  ............T=`.
	0x0010:  4644 0000 4500 0034 18e1 4000 3006 f36d  FD..E..4..@.0..m
	0x0020:  14cf 4952 c0a8 1fac 01bb 9bb0 a3e4 4cf4  ..IR..........L.
	0x0030:  3a86 61de 8010 0044 4904 0000 0101 080a  :.a....DI.......
	0x0040:  9091 8204 5e3e 5382                      ....^>S.
23:00:40.061731 eth0  In  IP 20.207.73.82.443 > 192.168.31.172.39856: Flags [P.], seq 3361:3710, ack 722, win 68, options [nop,nop,TS val 2425455185 ecr 1581142914], length 349
	0x0000:  0800 0000 0000 0002 0001 0006 543d 60ab  ............T=`.
	0x0010:  4644 0000 4500 0191 19e1 4000 3006 f110  FD..E.....@.0...
	0x0020:  14cf 4952 c0a8 1fac 01bb 9bb0 a3e4 4cf4  ..IR..........L.
	0x0030:  3a86 61de 8018 0044 22d1 0000 0101 080a  :.a....D".......
	0x0040:  9091 8251 5e3e 5382 1703 0301 5849 ae09  ...Q^>S.....XI..
	0x0050:  390b 5b79 cd02 a9ef 5164 7e9f 05a5 58d5  9.[y....Qd~...X.
	0x0060:  8481 a2ac 1fe7 2c89 14b2 f63f 7cd5 5cc1  ......,....?|.\.
	0x0070:  1cdf cf89 6843 f07a c26e 79e8 483f 2130  ....hC.z.ny.H?!0
	0x0080:  1e86 4192 efb0 fd29 9f7e f19a f798 29d6  ..A....).~....).
	0x0090:  288a 4b43 65b9 36b1 0f18 e92e 09e6 4783  (.KCe.6.......G.
	0x00a0:  3b5e fae3 d3cb 26ef 9cfb fdf3 708a 9010  ;^....&.....p...
	0x00b0:  8387 9ae7 2df6 d019 4053 b906 5c99 f349  ....-...@S..\..I
	0x00c0:  3bf0 4ce7 6bd0 8a33 1b7e 799e 6f7b 3ba6  ;.L.k..3.~y.o{;.
	0x00d0:  bf57 716c 2c4b bf40 5c0a df5f 1991 123e  .Wql,K.@\.._...>
	0x00e0:  2b89 4f24 57c8 438d 0369 0101 2bc8 af3c  +.O$W.C..i..+..<
	0x00f0:  4b3c fca5 7790 f64b a341 b1d1 883b 85cb  K<..w..K.A...;..
	0x0100:  e416 473c 4b49 bc6f d00d 7330 9da9 875c  ..G<KI.o..s0...\
	0x0110:  354e d92f 9538 59ad 54ed ab79 3d39 c81f  5N./.8Y.T..y=9..
	0x0120:  0069 d95f fe9d 77ce 5683 1795 d414 19ac  .i._..w.V.......
	0x0130:  5b0c 0c91 f6b9 b03d 1b1f f56b 0aee b7a9  [......=...k....
	0x0140:  fe52 4d8f 0a14 c8bd a9f4 766f 8bb5 112a  .RM.......vo...*
	0x0150:  736c 167f 6a2d 9bf3 8403 6acb 98e5 69b8  sl..j-....j...i.
	0x0160:  6bde 03bd 17e9 05a4 2e77 57bb 6873 44e2  k........wW.hsD.
	0x0170:  b467 f7f9 8df8 0c3e fb20 2ed9 2cb9 a5aa  .g.....>....,...
	0x0180:  89df a941 8f82 25ed 366d 641b f97a 235a  ...A..%.6md..z#Z
	0x0190:  991d 7d8d 82ea eb17 dcae 707c b25b 43cc  ..}.......p|.[C.
	0x01a0:  c7f9 4c4b a1                             ..LK.
23:00:40.063908 eth0  Out IP 192.168.31.172.39856 > 20.207.73.82.443: Flags [P.], seq 722:867, ack 3710, win 567, options [nop,nop,TS val 1581143122 ecr 2425455185], length 145
	0x0000:  0800 0000 0000 0002 0001 0406 bc24 1138  .............$.8
	0x0010:  b334 0000 4500 00c5 2a90 4000 4006 d12d  .4..E...*.@.@..-
	0x0020:  c0a8 1fac 14cf 4952 9bb0 01bb 3a86 61de  ......IR....:.a.
	0x0030:  a3e4 4e51 8018 0237 3f2d 0000 0101 080a  ..NQ...7?-......
	0x0040:  5e3e 5452 9091 8251 1703 0300 8ce2 d12d  ^>TR...Q.......-
	0x0050:  40f2 bb09 0998 6e77 7111 ac26 c1e6 c439  @.....nwq..&...9
	0x0060:  c7c3 7d63 c914 44ca 1b91 18ee 235c 5893  ..}c..D.....#\X.
	0x0070:  30c5 a4d5 e1e5 7315 eb22 3ede f74a 4d90  0.....s..">..JM.
	0x0080:  d0d1 3525 5d42 c6d7 d1d1 0828 180f f748  ..5%]B.....(...H
	0x0090:  7696 ee9f b687 3bb7 7c57 d037 ff12 16e4  v.....;.|W.7....
	0x00a0:  a363 d03a e9ba 1c6e e02b 7b3c 3e96 1815  .c.:...n.+{<>...
	0x00b0:  5fe8 c798 f3f5 174e be0d 7c11 6d7e c588  _......N..|.m~..
	0x00c0:  9f77 8799 74df dbc4 1934 6345 7bb4 a754  .w..t....4cE{..T
	0x00d0:  d963 e6dc 7d6f 2960 65                   .c..}o)`e
23:00:40.133555 eth0  In  IP 20.207.73.82.443 > 192.168.31.172.39856: Flags [.], ack 867, win 69, options [nop,nop,TS val 2425455260 ecr 1581143122], length 0
	0x0000:  0800 0000 0000 0002 0001 0006 543d 60ab  ............T=`.
	0x0010:  4644 0000 4500 0034 1be1 4000 3006 f06d  FD..E..4..@.0..m
	0x0020:  14cf 4952 c0a8 1fac 01bb 9bb0 a3e4 4e51  ..IR..........NQ
	0x0030:  3a86 626f 8010 0045 45ad 0000 0101 080a  :.bo...EE.......
	0x0040:  9091 829c 5e3e 5452                      ....^>TR
23:00:40.403602 eth0  In  IP 20.207.73.82.443 > 192.168.31.172.39856: Flags [P.], seq 3710:4465, ack 867, win 69, options [nop,nop,TS val 2425455530 ecr 1581143122], length 755
	0x0000:  0800 0000 0000 0002 0001 0006 543d 60ab  ............T=`.
	0x0010:  4644 0000 4500 0327 3ae1 4000 3006 ce7a  FD..E..':.@.0..z
	0x0020:  14cf 4952 c0a8 1fac 01bb 9bb0 a3e4 4e51  ..IR..........NQ
	0x0030:  3a86 626f 8018 0045 24f7 0000 0101 080a  :.bo...E$.......
	0x0040:  9091 83aa 5e3e 5452 1703 0302 eeef 9a47  ....^>TR.......G
	0x0050:  d1bd b7c0 3d99 bce7 cc28 cd13 b013 caee  ....=....(......
	0x0060:  ca9b 6a75 28af 8748 88c6 283c 58d4 db19  ..ju(..H..(<X...
	0x0070:  0985 be1d 8357 c82e 6c7a 1f3f 74d5 3323  .....W..lz.?t.3#
	0x0080:  f008 0cea 834f a42c 23bc f679 2b2e cccd  .....O.,#..y+...
	0x0090:  5728 f92b 85a0 56c2 9c36 c6be 1542 7639  W(.+..V..6...Bv9
	0x00a0:  6d0f 0fc1 ea1a 4763 5c5e 4181 3101 0fd8  m.....Gc\^A.1...
	0x00b0:  b9ae 4321 ef8c 291f 4482 ae2e 5183 dda9  ..C!..).D...Q...
	0x00c0:  11fb 5c73 b0bf 0a9e 4f78 0ef2 9fe0 c3a5  ..\s....Ox......
	0x00d0:  6599 250b fb22 5add 39b0 d12c 60d4 aecf  e.%.."Z.9..,`...
	0x00e0:  28d4 0c2e a429 a379 c63c 13a2 247e eb7d  (....).y.<..$~.}
	0x00f0:  8e2b baec daf8 8b63 0a72 c941 eb8b 30d3  .+.....c.r.A..0.
	0x0100:  e13d 297f 533f 2de4 7a1c 4660 0946 1b38  .=).S?-.z.F`.F.8
	0x0110:  2e1c 4f10 5487 7cec 3202 8af2 8cc6 3e45  ..O.T.|.2.....>E
	0x0120:  d559 b779 2224 a4e4 9391 8793 1977 33eb  .Y.y"$.......w3.
	0x0130:  cca1 25b3 ed75 e380 a0bc d8fb e02e 9990  ..%..u..........
	0x0140:  6c0c 9050 d578 74cd 2e3b 6753 d091 0a62  l..P.xt..;gS...b
	0x0150:  7149 6626 02e1 9e03 a81a 25c5 2932 61f5  qIf&......%.)2a.
	0x0160:  0ef1 53df 7062 13a3 fdb9 d877 af92 9a74  ..S.pb.....w...t
	0x0170:  28d0 8c6a 4d1a 3395 2e6f 71ab 0c3b daea  (..jM.3..oq..;..
	0x0180:  0e1a 76bc 5938 8455 18aa d026 c831 4744  ..v.Y8.U...&.1GD
	0x0190:  958a f1a3 45e0 2c38 c99c 293f 75a4 54d9  ....E.,8..)?u.T.
	0x01a0:  9fb0 f704 50b4 b466 1dac 6881 4d92 531b  ....P..f..h.M.S.
	0x01b0:  6323 2461 8ad3 13ac c9be 4146 64f7 12dd  c#$a......AFd...
	0x01c0:  39a9 2a10 2be3 f1f1 05f2 0830 26c8 902c  9.*.+......0&..,
	0x01d0:  0071 34a0 7002 7141 0f5f 246f 4842 5716  .q4.p.qA._$oHBW.
	0x01e0:  09e3 4b11 1ebb b70c 651b 5945 64b4 b1cc  ..K.....e.YEd...
	0x01f0:  60ce 842a 9cbc 606b d0a2 fa57 e821 4939  `..*..`k...W.!I9
	0x0200:  5dff 8cc6 6b8c 5927 9aae 6368 6cb9 2bc3  ]...k.Y'..chl.+.
	0x0210:  e1e0 8157 05b2 5a21 cd81 6f8c f208 cc95  ...W..Z!..o.....
	0x0220:  22df 5070 29eb 9576 7b20 59bb 04aa 28ca  ".Pp)..v{.Y...(.
	0x0230:  ec07 bb7a fcf3 6b0c 821c 8260 c33e 7baf  ...z..k....`.>{.
	0x0240:  6fa4 5206 74e1 f884 a440 742f cd5d 2a77  o.R.t....@t/.]*w
	0x0250:  a762 d7db 400c 760b cde6 dbf1 73bb 2bb3  .b..@.v.....s.+.
	0x0260:  2b9f 3a62 4fdf c9a1 8fd1 0d30 123f ccce  +.:bO......0.?..
	0x0270:  a5c1 33e6 aa97 5d77 ebd7 822d 4ef9 09d8  ..3...]w...-N...
	0x0280:  d8c5 ae14 300f 5579 d573 6601 33f5 4984  ....0.Uy.sf.3.I.
	0x0290:  792b 3864 0e56 ea1a 1a07 b851 a8bf 64fd  y+8d.V.....Q..d.
	0x02a0:  d65d 5a25 b027 82c4 ae90 774d d121 3cca  .]Z%.'....wM.!<.
	0x02b0:  d822 b310 fa52 5100 33b7 0350 ae38 e32d  ."...RQ.3..P.8.-
	0x02c0:  5c1b a8f6 f677 4c93 0f3e 1c74 eacf 9341  \....wL..>.t...A
	0x02d0:  1755 80fd 4bc5 5cae 2921 0b39 0d85 f7fb  .U..K.\.)!.9....
	0x02e0:  017a 51f7 317b 6b81 253e 8e9b 4223 1b11  .zQ.1{k.%>..B#..
	0x02f0:  a984 f0f3 e41d c313 49a3 6856 f943 d456  ........I.hV.C.V
	0x0300:  3890 9e14 2e0c fe5b 0bad f540 21c2 0c1b  8......[...@!...
	0x0310:  23fb 0072 8aa9 c7a8 b48c 4656 39f5 322e  #..r......FV9.2.
	0x0320:  6606 69a7 3e6f 85da 7397 9e35 bcb8 09c3  f.i.>o..s..5....
	0x0330:  9317 dffa 88e4 46b4 5cb5 7c              ......F.\.|
23:00:40.406310 eth0  Out IP 192.168.31.172.39856 > 20.207.73.82.443: Flags [P.], seq 867:891, ack 4465, win 579, options [nop,nop,TS val 1581143464 ecr 2425455530], length 24
	0x0000:  0800 0000 0000 0002 0001 0406 bc24 1138  .............$.8
	0x0010:  b334 0000 4500 004c 2a91 4000 4006 d1a5  .4..E..L*.@.@...
	0x0020:  c0a8 1fac 14cf 4952 9bb0 01bb 3a86 626f  ......IR....:.bo
	0x0030:  a3e4 5144 8018 0243 3eb4 0000 0101 080a  ..QD...C>.......
	0x0040:  5e3e 55a8 9091 83aa 1703 0300 13c9 1073  ^>U............s
	0x0050:  14f7 6cbc 130f 40f4 272e 9a42 a89c f985  ..l...@.'..B....
23:00:40.408219 eth0  Out IP 192.168.31.172.39856 > 20.207.73.82.443: Flags [F.], seq 891, ack 4465, win 579, options [nop,nop,TS val 1581143466 ecr 2425455530], length 0
	0x0000:  0800 0000 0000 0002 0001 0406 bc24 1138  .............$.8
	0x0010:  b334 0000 4500 0034 2a92 4000 4006 d1bc  .4..E..4*.@.@...
	0x0020:  c0a8 1fac 14cf 4952 9bb0 01bb 3a86 6287  ......IR....:.b.
	0x0030:  a3e4 5144 8011 0243 3e9c 0000 0101 080a  ..QD...C>.......
	0x0040:  5e3e 55aa 9091 83aa                      ^>U.....
23:00:40.465738 eth0  In  IP 20.207.73.82.443 > 192.168.31.172.39856: Flags [.], ack 891, win 69, options [nop,nop,TS val 2425455595 ecr 1581143464], length 0
	0x0000:  0800 0000 0000 0002 0001 0006 543d 60ab  ............T=`.
	0x0010:  4644 0000 4500 0034 3de1 4000 3006 ce6d  FD..E..4=.@.0..m
	0x0020:  14cf 4952 c0a8 1fac 01bb 9bb0 a3e4 5144  ..IR..........QD
	0x0030:  3a86 6287 8010 0045 3ffd 0000 0101 080a  :.b....E?.......
	0x0040:  9091 83eb 5e3e 55a8                      ....^>U.
23:00:40.465739 eth0  In  IP 20.207.73.82.443 > 192.168.31.172.39856: Flags [P.], seq 4465:4489, ack 892, win 69, options [nop,nop,TS val 2425455595 ecr 1581143466], length 24
	0x0000:  0800 0000 0000 0002 0001 0006 543d 60ab  ............T=`.
	0x0010:  4644 0000 4500 004c 3ee1 4000 3006 cd55  FD..E..L>.@.0..U
	0x0020:  14cf 4952 c0a8 1fac 01bb 9bb0 a3e4 5144  ..IR..........QD
	0x0030:  3a86 6288 8018 0045 9cd7 0000 0101 080a  :.b....E........
	0x0040:  9091 83eb 5e3e 55aa 1703 0300 13ce 5aa2  ....^>U.......Z.
	0x0050:  a051 9fcc 1584 5c24 e043 dd4b 5fba 4b7e  .Q....\$.C.K_.K~
23:00:40.465782 eth0  Out IP 192.168.31.172.39856 > 20.207.73.82.443: Flags [R], seq 981885576, win 0, length 0
	0x0000:  0800 0000 0000 0002 0001 0406 bc24 1138  .............$.8
	0x0010:  b334 0000 4500 0028 0000 4000 4006 fc5a  .4..E..(..@.@..Z
	0x0020:  c0a8 1fac 14cf 4952 9bb0 01bb 3a86 6288  ......IR....:.b.
	0x0030:  0000 0000 5004 0000 36f1 0000            ....P...6...
23:00:40.465894 eth0  In  IP 20.207.73.82.443 > 192.168.31.172.39856: Flags [F.], seq 4489, ack 892, win 69, options [nop,nop,TS val 2425455595 ecr 1581143466], length 0
	0x0000:  0800 0000 0000 0002 0001 0006 543d 60ab  ............T=`.
	0x0010:  4644 0000 4500 0034 3fe1 4000 3006 cc6d  FD..E..4?.@.0..m
	0x0020:  14cf 4952 c0a8 1fac 01bb 9bb0 a3e4 515c  ..IR..........Q\
	0x0030:  3a86 6288 8011 0045 3fe1 0000 0101 080a  :.b....E?.......
	0x0040:  9091 83eb 5e3e 55aa                      ....^>U.
23:00:40.465914 eth0  Out IP 192.168.31.172.39856 > 20.207.73.82.443: Flags [R], seq 981885576, win 0, length 0
	0x0000:  0800 0000 0000 0002 0001 0406 bc24 1138  .............$.8
	0x0010:  b334 0000 4500 0028 0000 4000 4006 fc5a  .4..E..(..@.@..Z
	0x0020:  c0a8 1fac 14cf 4952 9bb0 01bb 3a86 6288  ......IR....:.b.
	0x0030:  0000 0000 5004 0000 36f1 0000            ....P...6...
23:00:42.508555 eth0  M   IP 192.168.31.1 > 224.0.0.1: igmp query v3 [max resp time 2.0s]
	0x0000:  0800 0000 0000 0002 0001 0206 543d 60ab  ............T=`.
	0x0010:  4644 0000 46c0 0024 0df8 4000 0102 1671  FD..F..$..@....q
	0x0020:  c0a8 1f01 e000 0001 9404 0000 1114 ede5  ................
	0x0030:  0000 0000 0106 0000 0000 0000 0000 0000  ................
	0x0040:  0000                                     ..
23:00:43.348677 eth0  M   IP 192.168.31.131 > 224.0.0.22: igmp v3 report, 2 group record(s)
	0x0000:  0800 0000 0000 0002 0001 0206 bc24 1199  .............$..
	0x0010:  10ef 0000 46c0 0030 0000 4000 0102 23c6  ....F..0..@...#.
	0x0020:  c0a8 1f83 e000 0016 9404 0000 2200 61b2  ............".a.
	0x0030:  0000 0002 0200 0000 efc0 988f 0200 0000  ................
	0x0040:  efff fffa                                ....
23:00:48.511198 eth0  M   IP 192.168.31.1 > 224.0.0.1: igmp query v3 [max resp time 2.0s]
	0x0000:  0800 0000 0000 0002 0001 0206 543d 60ab  ............T=`.
	0x0010:  4644 0000 46c0 0024 0f3e 4000 0102 152b  FD..F..$.>@....+
	0x0020:  c0a8 1f01 e000 0001 9404 0000 1114 ede5  ................
	0x0030:  0000 0000 0106 0000 0000 0000 0000 0000  ................
	0x0040:  0000                                     ..
23:00:49.410791 eth0  M   IP 192.168.31.131 > 224.0.0.22: igmp v3 report, 1 group record(s)
	0x0000:  0800 0000 0000 0002 0001 0206 bc24 1199  .............$..
	0x0010:  10ef 0000 46c0 0028 0000 4000 0102 23ce  ....F..(..@...#.
	0x0020:  c0a8 1f83 e000 0016 9404 0000 2200 eb03  ............"...
	0x0030:  0000 0001 0300 0000 efff fffa            ............
23:00:49.412817 eth0  M   IP 192.168.31.1 > 239.255.255.250: igmp query v3 [max resp time 1.0s] [gaddr 239.255.255.250]
	0x0000:  0800 0000 0000 0002 0001 0206 543d 60ab  ............T=`.
	0x0010:  4644 0000 46c0 0024 bace 4000 0102 59a1  FD..F..$..@...Y.
	0x0020:  c0a8 1f01 efff fffa 9404 0000 110a fdf4  ................
	0x0030:  efff fffa 0106 0000 0000 0000 0000 0000  ................
	0x0040:  0000                                     ..
23:00:50.068998 eth0  M   IP 192.168.31.131 > 224.0.0.22: igmp v3 report, 1 group record(s)
	0x0000:  0800 0000 0000 0002 0001 0206 bc24 1199  .............$..
	0x0010:  10ef 0000 46c0 0028 0000 4000 0102 23ce  ....F..(..@...#.
	0x0020:  c0a8 1f83 e000 0016 9404 0000 2200 53ae  ............".S.
	0x0030:  0000 0001 0200 0000 efc0 988f            ............
23:00:54.512739 eth0  M   IP 192.168.31.1 > 224.0.0.1: igmp query v3 [max resp time 2.0s]
	0x0000:  0800 0000 0000 0002 0001 0206 543d 60ab  ............T=`.
	0x0010:  4644 0000 46c0 0024 10cb 4000 0102 139e  FD..F..$..@.....
	0x0020:  c0a8 1f01 e000 0001 9404 0000 1114 ede5  ................
	0x0030:  0000 0000 0106 0000 0000 0000 0000 0000  ................
	0x0040:  0000                                     ..
23:00:56.084976 eth0  M   IP 192.168.31.131 > 224.0.0.22: igmp v3 report, 1 group record(s)
	0x0000:  0800 0000 0000 0002 0001 0206 bc24 1199  .............$..
	0x0010:  10ef 0000 46c0 0028 0000 4000 0102 23ce  ....F..(..@...#.
	0x0020:  c0a8 1f83 e000 0016 9404 0000 2200 53ae  ............".S.
	0x0030:  0000 0001 0200 0000 efc0 988f            ............

47 packets captured
47 packets received by filter
0 packets dropped by kernel
